:100000000C943A000C944E050C9490050C945700F7
:100010000C9457000C9457000C9457000C94570004
:100020000C9457000C9457000C9457000C945700F4
:100030000C9457000C9457000C9457000C945700E4
:100040000C9457000C9457000C9457000C945700D4
:100050000C945700A707AB07AF07B307B707BB0759
:10006000BF07C307D407DA07E007E607EC07F20784
:10007000F807FE0711241FBECFE5D8E0DEBFCDBFD5
:1000800013E0A0E6B0E0E6EFF3E102C005900D92C8
:10009000A63EB107D9F723E0A6EEB3E001C01D925A
:1000A000A63EB207E1F70E9459000C94F9090C949E
:1000B0000000EF92FF920F931F93CF93DF930E9464
:1000C000900623E040E060E080E00E9478090E9412
:1000D00041070E94C0050E94D20561E080E00E94B5
:1000E0001F0961E081E00E941F0961E084E00E9435
:1000F0008B0784E80E944F0680E690E00E940A0782
:1001000080EC0E944F068BE690E00E940A0786E78B
:1001100090E00E94880981E890E00E9488098CE8BC
:1001200090E00E94880988E990E00E9488090E9476
:100130008409C82F8AEA90E00E9488098C2F90E0F9
:100140000E94940985EA92E00E94880911E0D3E0B8
:1001500000E0FF24F394C23309F48BC0C33309F4E5
:100160000DC1C13309F08EC18FEA90E00E94880969
:100170000E948409E82E90E00E94880985EA92E0B6
:100180000E94880921E3E2126EC081EE90E00E9495
:1001900088090E948409E82E90E00E94880985EA77
:1001A00092E00E94880982E3E81257C084EF90E051
:1001B0000E9488090E948409E82E90E00E94880924
:1001C00085EA92E00E94880993E3E91240C086E044
:1001D00091E00E9488098EE091E00E940A072FEFCB
:1001E00082E597E0215080409040E1F700C0000098
:1001F0000E943D078EE191E00E94880984E391E02E
:100200000E94880980E591E00E94880982E691E0D9
:100210000E9488098CE691E00E94880981E891E0BB
:100220000E94880980E991E00E94880980EA91E0B3
:100230000E9488098AEB91E00E94880985ED91E08F
:100240000E94880989EE91E00E9488091BC48BEF07
:1002500091E00E948809D15015C18BEF91E00E9476
:100260008809D1500FC18BEF91E00E948809D150CD
:1002700009C18FEF91E00E9488090E948409E82E4D
:1002800090E00E94880985EA92E00E94880924E3B0
:10029000E2126EC081EE90E00E9488090E948409FB
:1002A000E82E90E00E94880985EA92E00E94880981
:1002B00085E3E81257C084EF90E00E9488090E940D
:1002C0008409E82E90E00E94880985EA92E00E9465
:1002D000880996E3E91240C086E091E00E9488090F
:1002E00081E392E00E940A072FEF82E597E0215018
:1002F00080409040E1F700C000000E943D0781E48B
:1003000092E00E94880984E391E00E94880980E5D8
:1003100091E00E94880982E691E00E9488098CE6BB
:1003200091E00E94880981E891E00E94880980E9B3
:1003300091E00E94880980EA91E00E9488098AEB96
:1003400091E00E94880985ED91E00E94880989EE7C
:1003500091E00E94880996C38BEF91E00E94880982
:10036000D15090C08BEF91E00E948809D1508AC093
:100370008BEF91E00E948809D15084C087E592E01C
:100380000E9488090E948409E82E90E00E94880952
:1003900085EA92E00E94880927E3E2126EC081EEAE
:1003A00090E00E9488090E948409E82E90E00E9453
:1003B000880985EA92E00E94880988E3E81257C01C
:1003C00088E892E00E9488090E948409E82E90E063
:1003D0000E94880985EA92E00E94880999E3E9125F
:1003E00040C08DE992E00E94880988EA92E00E946C
:1003F0000A072FEF82E597E0215080409040E1F717
:1004000000C000000E943D0787EB92E00E9488092F
:1004100084E391E00E9488098DEC92E00E948809B3
:1004200080EE92E00E9488098BEE92E00E9488099B
:1004300081E891E00E94880980E991E00E948809A2
:1004400080EA91E00E9488098AEB91E00E94880985
:1004500085ED91E00E94880989EE91E00E9488096B
:1004600011C38BEF91E00E948809D1500BC08BEF34
:1004700091E00E948809D15005C08BEF91E00E9465
:100480008809D150D1111FC001C00F2D81E093E028
:100490000E94880940E060E083E00E947A0840E022
:1004A0006F2D83E00E947A080E94C6052FEF8DE32E
:1004B00099E4215080409040E1F700C000000E9484
:1004C000CC05D0E010E0013009F045CE113009F044
:1004D000DCC20E943D078CE093E00E940A072FEFE8
:1004E00082E597E0215080409040E1F700C0000095
:1004F0000E943D07C23309F40CC1C33309F410C292
:10050000C13339F70E948409813391F40E944D0769
:100510000E943D078EE193E00E940A072FEF82E5DB
:1005200097E0215080409040E1F700C00000D1CF1B
:10053000823331F50E9463078C018CE293E00E94C4
:100540000A0780EC0E944F069801ADECBCEC0E94BB
:100550009E09969587959695879596958795BC0162
:1005600080E090E00E941F072FEF8DE399E4215077
:1005700080409040E1F700C000000E943D07A9CFF5
:10058000833301F560E080E00E94F1052FEF8DE3F9
:1005900099E4215080409040E1F700C0000080E0E5
:1005A0000E943D068CE393E00E940A072FEF8DE343
:1005B00099E4215080409040E1F700C000000E9483
:1005C0003D0787CF8433D1F440E062E082E00E94AF
:1005D000090841E062E082E00E947A0885E493E045
:1005E0000E940A072FEF8DE399E42150804090404C
:1005F000E1F700C000000E943D076BCF8533D1F4C6
:1006000040E062E082E00E94090840E062E082E0AF
:100610000E947A088FE493E00E940A072FEF8DE38F
:1006200099E4215080409040E1F700C000000E9412
:100630003D074FCF8633D1F440E063E082E00E9473
:10064000090841E063E082E00E947A088AE593E0CD
:100650000E940A072FEF8DE399E4215080409040DB
:10066000E1F700C000000E943D0733CF8733D1F48B
:1006700040E063E082E00E94090840E063E082E03D
:100680000E947A088DE693E00E940A072FEF8DE31F
:1006900099E4215080409040E1F700C000000E94A2
:1006A0003D0717CF8833C9F440E067E082E00E943D
:1006B000090867E082E00E94EB0882E893E00E946C
:1006C0000A072FEF8DE399E4215080409040E1F735
:1006D00000C000000E943D07FCCE893309F0F9CE2E
:1006E00040E066E082E00E94090866E082E00E9445
:1006F000EB088FE893E00E940A072FEF8DE399E45F
:10070000215080409040E1F700C000000E943D076A
:10071000E0CE0E948409813391F40E9458070E9420
:100720003D078BE993E00E940A072FEF82E597E0EF
:10073000215080409040E1F700C00000CACE8233D3
:1007400031F50E9477078C0189EA93E00E940A073D
:1007500080EC0E944F069801ADECBCEC0E949E0913
:10076000969587959695879596958795BC0180E097
:1007700090E00E941F072FEF8DE399E42150804005
:100780009040E1F700C000000E943D07A2CE8333F5
:1007900001F561E080E00E94F1052FEF8DE399E41F
:1007A000215080409040E1F700C0000081E00E94AD
:1007B0003D0689EB93E00E940A072FEF8DE399E451
:1007C000215080409040E1F700C000000E943D07AA
:1007D00080CE8433D1F440E062E082E00E940908D8
:1007E00041E062E082E00E947A0885E493E00E94A2
:1007F0000A072FEF8DE399E4215080409040E1F704
:1008000000C000000E943D0764CE8533D1F440E073
:1008100062E082E00E94090840E062E082E00E941B
:100820007A088FE493E00E940A072FEF8DE399E4A2
:10083000215080409040E1F700C000000E943D0739
:1008400048CE8633D1F440E063E082E00E9409089C
:1008500041E063E082E00E947A088AE593E00E942A
:100860000A072FEF8DE399E4215080409040E1F793
:1008700000C000000E943D072CCE8733D1F440E039
:1008800063E082E00E94090840E063E082E00E94A9
:100890007A0882EC93E00E940A072FEF8DE399E437
:1008A000215080409040E1F700C000000E943D07C9
:1008B00010CE8833C9F440E067E082E00E94090866
:1008C00067E082E00E94EB0882E893E00E940A075A
:1008D0002FEF8DE399E4215080409040E1F700C074
:1008E00000000E943D07F5CD893309F0F2CD40E0CC
:1008F00066E082E00E94090866E082E00E94EB0860
:100900008FE893E00E940A072FEF8DE399E42150CE
:1009100080409040E1F700C000000E943D07D9CD23
:100920000E948409813369F40E9458070E944D0790
:1009300066E082E00E94EB0867E082E00E94EB083C
:10094000C8CD8233C1F50E9463077C010E947707FE
:100950008C0184E80E944F069701ADECBCEC0E942C
:100960009E09969587959695879596958795BC014E
:1009700080E090E00E941F0780EC0E944F069801E3
:10098000ADECBCEC0E949E0996958795969587954F
:1009900096958795BC0180E090E00E941F072FEF9D
:1009A0008DE399E4215080409040E1F700C00000C1
:1009B0000E943D078ECD8333C1F460E080E00E9449
:1009C000F10561E080E00E94F1052FEF8DE399E4ED
:1009D000215080409040E1F700C0000080E00E947C
:1009E0003D0681E00E943D0674CD843359F440E019
:1009F00062E082E00E94090841E062E082E00E9439
:100A00007A0867CD853359F440E062E082E00E94C5
:100A1000090840E062E082E00E947A085ACD8633FD
:100A200059F440E063E082E00E94090841E063E09D
:100A300082E00E947A084DCD873359F440E063E0AC
:100A400082E00E94090840E063E082E00E947A08A8
:100A500040CD883351F440E067E082E00E9409080D
:100A600067E082E00E94EB0834CD893309F031CD94
:100A700040E066E082E00E94090866E082E00E94B1
:100A8000EB0827CDD11122CD00CD80E090E0DF91A1
:100A9000CF911F910F91FF90EF9008951F920F92A9
:100AA0000FB60F9211242F933F934F935F936F9341
:100AB0007F938F939F93AF93BF93EF93FF930E9486
:100AC000C6050E945D072FEF8DE399E42150804019
:100AD0009040E1F700C0000086ED93E00E940A0715
:100AE00041E061E083E00E94090840E060E083E0CB
:100AF0000E947A0840E061E083E00E947A08FF915A
:100B0000EF91BF91AF919F918F917F916F915F9185
:100B10004F913F912F910F900FBE0F901F901895FE
:100B20001F920F920FB60F9211242F933F934F9362
:100B30005F936F937F938F939F93AF93BF93EF9345
:100B4000FF930E9447070E94520740E066E082E060
:100B50000E947A0840E067E082E00E947A08FF91F4
:100B6000EF91BF91AF919F918F917F916F915F9125
:100B70004F913F912F910F900FBE0F901F9018959E
:100B800040E065E082E00E940908089541E065E0E8
:100B900082E00E947A08089540E065E082E00E94C9
:100BA0007A08089540E061E082E00E94090840E090
:100BB00060E082E00E94090840E067E083E00E9474
:100BC000090840E064E083E00E94090840E065E035
:100BD00083E00E94090840E066E083E00E94090883
:100BE0000895611124C0811110C041E061E082E0EC
:100BF0000E947A0841E067E083E00E947A0840E0C2
:100C000064E083E00E947A0808958130A9F541E00C
:100C100061E082E00E947A0840E067E083E00E94A1
:100C20007A0841E064E083E00E947A080895613028
:100C300019F5811110C041E060E082E00E947A085D
:100C400041E065E083E00E947A0840E066E083E0EE
:100C50000E947A080895813079F441E060E082E0F2
:100C60000E947A0840E065E083E00E947A0841E053
:100C700066E083E00E947A08089581110FC040E089
:100C800061E082E00E947A0840E067E083E00E9431
:100C90007A0840E064E083E00E947A080895CF93E8
:100CA000C82F40E061E081E00E947A0840E062E005
:100CB00081E00E947A0840E063E081E00E947A08C7
:100CC0008C2F807F8BBB41E063E081E00E947A083B
:100CD0008FEC97E00197F1F700C0000040E063E07F
:100CE00081E00E947A0820E1C29FC00111248BBBE1
:100CF00041E063E081E00E947A088FEC97E0019781
:100D0000F1F700C0000040E063E081E00E947A0853
:100D10008FE097E20197F1F700C00000CF910895AE
:100D200040E061E081E00E94090840E062E081E08B
:100D30000E94090840E063E081E00E94090840E069
:100D400064E080E00E94090840E065E080E00E94E5
:100D5000090840E066E080E00E94090840E067E0A2
:100D600080E00E94090883E30E944F0682E30E940C
:100D70004F0688E20E944F0681E00E944F0682E003
:100D80000E944F068CE00E944F0686E00E944F06AC
:100D90000895CF93C82F41E061E081E00E947A0876
:100DA00040E062E081E00E947A0840E063E081E098
:100DB0000E947A088C2F807F8BBB41E063E081E04A
:100DC0000E947A088FEC97E00197F1F700C00000CD
:100DD00040E063E081E00E947A0820E1C29FC00108
:100DE00011248BBB41E063E081E00E947A088FEC24
:100DF00097E00197F1F700C0000040E063E081E078
:100E00000E947A088FE097E20197F1F700C0000096
:100E1000CF910895CF93DF93EC018881882361F00F
:100E200021960E94C9068FE19EE40197F1F700C068
:100E3000000089918111F5CFDF91CF910895CF9373
:100E4000DF93CDB7DEB72A970FB6F894DEBF0FBE9B
:100E5000CDBF2AE030E0AE014F5F5F4F0E94AD0989
:100E6000CE0101960E940A072A960FB6F894DEBFBB
:100E70000FBECDBFDF91CF91089581E00E944F0654
:100E8000089540E064E081E00E940908089540E090
:100E900064E081E00E947A08089564E081E00E94A5
:100EA000EB08089540E065E081E00E947A0808952B
:100EB00065E081E00E94EB08089541E066E081E092
:100EC0000E947A08089580E00E94CB079C01A8E860
:100ED000B3E10E949E09DC01CB01072E7AE0B695B2
:100EE000A795979587957A95D1F7702D089581E00C
:100EF0000E94CB079C01A8E8B3E10E949E09DC0197
:100F0000CB01072E7AE0B695A795979587957A95A8
:100F1000D1F7702D0895613049F028F0623049F022
:100F2000633051F00BC03E983F9808C03E9A3F98FE
:100F300005C03E983F9A02C03E9A3F9A90E08830A2
:100F4000910520F5FC01E65DFF4F0C94980932985D
:100F5000319830981BC032983198309A17C0329827
:100F6000319A309813C03298319A309A0FC0329A21
:100F7000319830980BC0329A3198309A07C0329A23
:100F8000319A309803C0329A319A309A379A33980E
:100F9000359A3D98089590E088309105A0F5FC01C0
:100FA000EE5CFF4F0C9498093C983B983A9839981E
:100FB000389829C03C983B983A983998389A23C079
:100FC0003C983B983A98399A38981DC03C983B9881
:100FD0003A98399A389A17C03C983B983A9A399877
:100FE000389811C03C983B983A9A3998389A0BC077
:100FF0003C983B983A9A399A389805C03C983B9867
:101000003A9A399A389A369A349BFECF84B195B180
:1010100008954423D9F1413009F06BC0813091F03B
:1010200028F08230D9F0833029F108952AB381E085
:1010300090E002C0880F991F6A95E2F7809582239D
:101040008ABB089527B381E090E002C0880F991F02
:101050006A95E2F78095822387BB089524B381E0E7
:1010600090E002C0880F991F6A95E2F7809582236D
:1010700084BB089521B381E090E002C0880F991FDE
:101080006A95E2F78095822381BB0895813089F0CB
:1010900028F08230C9F0833011F108952AB381E03D
:1010A00090E002C0880F991F6A95E2F7822B8ABBF5
:1010B000089527B381E090E002C0880F991F6A95D8
:1010C000E2F7822B87BB089524B381E090E002C051
:1010D000880F991F6A95E2F7822B84BB089521B38C
:1010E00081E090E002C0880F991F6A95E2F7822B99
:1010F00081BB0895442319F04130C9F1089581302E
:1011000091F028F08230D9F0833029F108952BB383
:1011100081E090E002C0880F991F6A95E2F7809500
:1011200082238BBB089528B381E090E002C0880F32
:10113000991F6A95E2F78095822388BB089525B3AD
:1011400081E090E002C0880F991F6A95E2F78095D0
:10115000822385BB089522B381E090E002C0880F0E
:10116000991F6A95E2F78095822382BB08958130AA
:1011700089F028F08230C9F0833011F108952BB343
:1011800081E090E002C0880F991F6A95E2F7822BF8
:101190008BBB089528B381E090E002C0880F991FAF
:1011A0006A95E2F7822B88BB089525B381E090E031
:1011B00002C0880F991F6A95E2F7822B85BB0895BC
:1011C00022B381E090E002C0880F991F6A95E2F790
:1011D000822B82BB0895813089F028F08230C9F0DB
:1011E000833011F108952BB381E090E002C0880FA5
:1011F000991F6A95E2F782278BBB089528B381E097
:1012000090E002C0880F991F6A95E2F7822788BB99
:10121000089525B381E090E002C0880F991F6A9578
:10122000E2F7822785BB089522B381E090E002C0F7
:10123000880F991F6A95E2F7822782BB08959FB7AE
:101240009F779FBF882319F0813041F14DC06130F5
:1012500069F028F0623089F06330B1F01BC085B7C7
:101260008D7F85BF85B78E7F85BF14C085B78D7F85
:1012700085BF85B7816085BF0DC085B7826085BF9A
:1012800085B78E7F85BF06C085B7826085BF85B76D
:10129000816085BF8BB780648BBF26C0613069F0E9
:1012A00028F0623089F06330B1F01BC085B7877FCA
:1012B00085BF85B78B7F85BF14C085B7877F85BF06
:1012C00085B7846085BF0DC085B7886085BF85B749
:1012D0008B7F85BF06C085B7886085BF85B7846072
:1012E00085BF8BB780688BBF8FB780688FBF08952D
:1012F0008898899A8AB188618AB980B5866880BDE4
:1013000083E389B910BC08955F9BFECF8CB108952B
:10131000FC019081992339F031965D9BFECF9CB9F9
:1013200091919111FACF08955D9BFECF8CB90895EC
:10133000EE0FFF1F0590F491E02D0994A29FB001DC
:10134000B39FC001A39F700D811D1124911DB29FF9
:10135000700D811D1124911D08952532310520F451
:10136000223010F00C94B809FA011082CA010895D5
:10137000BB272A3051F4992342F4BDE29095809521
:10138000709561957F4F8F4F9F4F0C94C809BB2775
:10139000FA01A62F6217710581059105330B30FB09
:1013A00066F0AA27660F771F881F991FAA1FA2172A
:1013B00010F0A21B63953850A9F7A05DAA3308F07E
:1013C000A95DA19336F7B111B1931082CA010C94B3
:1013D000E909DC01FC01672F71917723E1F732976E
:1013E00004C07C916D9370836291AE17BF07C8F300
:0613F0000895F894FFCF00
:1013F6004C4F47494E204D6F646500454E5445524B
:10140600204441544100313A2D75736572310D0AFD
:1014160000323A2D75736572320D0A00333A2D414A
:10142600646D696E200D0A00656E74657220796FB1
:1014360075722063686F69636500757365720077FE
:10144600656C636F6D652075736572203120656EFE
:1014560074657220796F75722070617373776F721D
:1014660064206469676974206279206469676974B5
:1014760000656E746572207365636F6E64206469BF
:1014860067697400656E7465722074686972642099
:1014960064696769740057454C434F4D450057656D
:1014A6006C636F6D6520557365722031200057653A
:1014B6006C636F6D6520557365723120486F6D657D
:1014C600200D0A00456E74657220796F757220636F
:1014D600686F69636520706C65617365200D0A002D
:1014E600313A4F6E2F4F6666206C69676874200D1F
:1014F6000A00323A54656D70200D0A00333A4F7077
:10150600656E2F436C6F736520444F4F52200D0A52
:1015160000343A4F70656E204F76656E200D0A00D6
:10152600353A436C6F7365204F76656E200D0A0061
:10153600363A4F70656E2041697220436F6E64695A
:1015460074696F6E616C200D0A00373A436C6F73D5
:10155600652041697220436F6E646974696F6E61BC
:101566006C200D0A00383A4F70656E20426174682F
:10157600726F6F6D73200D0A00393A4F70656E20D9
:101586004B69746368656E200D0A004E4F4F0077F5
:10159600656C636F6D652075736572203220656EAC
:1015A60074657220796F75722070617373776F72CC
:1015B6006420646967697420627920646967697464
:1015C6000057656C636F6D65205573657220322018
:1015D6000057656C636F6D652055736572322048E0
:1015E6006F6D65200D0A0077656C636F6D65204130
:1015F600646D696E20656E74657220796F757220F0
:1016060070617373776F72642064696769742062AE
:101616007920646967697400656E74657220746800
:10162600697264206469676974200D0A0057454C25
:10163600434F4D45200D0A0057656C636F6D65205D
:1016460041444D494E200057656C636F6D652055CA
:101656007365723320486F6D65200D0A00313A4F6D
:101666006E2F4F6666206C6967687473200D0A00DA
:10167600323A54656D7073200D0A00333A4F706527
:101686006E2F436C6F736520444F4F5273200D0AC3
:1016960000626C6F636B6564200D0A0057454C430E
:1016A6004F4D4520544F2053595354454D004C45FA
:1016B60044203120746F67676C65640054656D70F3
:1016C60020526F6F6D31206973203A00444F4F529C
:1016D6002031203A00486561746572204F6E0048DB
:1016E6006561746572204F66660041495220434F1A
:1016F6004E444954494F4E414C204F4E00414952A9
:1017060020434F4E444954494F4E414C20204F668A
:10171600660042617468726F6F6D2054474C004BCF
:1017260069746368656E2054474C004C454420320A
:1017360020746F67676C65640054656D7020526F26
:101746006F6D32206973203A00444F4F5220322089
:101756003A0041495220434F4E444954494F4E4165
:101766004C204F464600456D657267656E6379206D
:06177600416C61726D0080
:00000001FF
